{
  "contractName": "Usuario",
  "abi": [
    {
      "constant": true,
      "inputs": [
        {
          "internalType": "address",
          "name": "",
          "type": "address"
        }
      ],
      "name": "saldo",
      "outputs": [
        {
          "internalType": "int256",
          "name": "",
          "type": "int256"
        }
      ],
      "payable": false,
      "stateMutability": "view",
      "type": "function"
    },
    {
      "constant": false,
      "inputs": [
        {
          "internalType": "address",
          "name": "usuario",
          "type": "address"
        },
        {
          "internalType": "int256",
          "name": "cuanto",
          "type": "int256"
        }
      ],
      "name": "poner",
      "outputs": [],
      "payable": false,
      "stateMutability": "nonpayable",
      "type": "function"
    },
    {
      "constant": false,
      "inputs": [
        {
          "internalType": "address",
          "name": "usuario",
          "type": "address"
        },
        {
          "internalType": "int256",
          "name": "cuanto",
          "type": "int256"
        }
      ],
      "name": "sacar",
      "outputs": [],
      "payable": false,
      "stateMutability": "nonpayable",
      "type": "function"
    }
  ],
  "bytecode": "0x608060405234801561001057600080fd5b5061040d806100206000396000f3fe608060405234801561001057600080fd5b50600436106100415760003560e01c80631498f7ed14610046578063422fb52514610094578063a73d5c33146100ec575b600080fd5b6100926004803603604081101561005c57600080fd5b81019080803573ffffffffffffffffffffffffffffffffffffffff1690602001909291908035906020019092919050505061013a565b005b6100d6600480360360208110156100aa57600080fd5b81019080803573ffffffffffffffffffffffffffffffffffffffff169060200190929190505050610242565b6040518082815260200191505060405180910390f35b6101386004803603604081101561010257600080fd5b81019080803573ffffffffffffffffffffffffffffffffffffffff1690602001909291908035906020019092919050505061025a565b005b80600081136101b1576040517f08c379a000000000000000000000000000000000000000000000000000000000815260040180806020018281038252601a8152602001807f456c2076616c6f7220646562652073657220706f73697469766f00000000000081525060200191505060405180910390fd5b60008060008573ffffffffffffffffffffffffffffffffffffffff1673ffffffffffffffffffffffffffffffffffffffff1681526020019081526020016000205490508281019050806000808673ffffffffffffffffffffffffffffffffffffffff1673ffffffffffffffffffffffffffffffffffffffff1681526020019081526020016000208190555050505050565b60006020528060005260406000206000915090505481565b80600081136102d1576040517f08c379a000000000000000000000000000000000000000000000000000000000815260040180806020018281038252601a8152602001807f456c2076616c6f7220646562652073657220706f73697469766f00000000000081525060200191505060405180910390fd5b60008060008573ffffffffffffffffffffffffffffffffffffffff1673ffffffffffffffffffffffffffffffffffffffff1681526020019081526020016000205490508281121561038a576040517f08c379a000000000000000000000000000000000000000000000000000000000815260040180806020018281038252601a8152602001807f4e6f2068617920737566696369656e746520656665637469766f00000000000081525060200191505060405180910390fd5b8281039050806000808673ffffffffffffffffffffffffffffffffffffffff1673ffffffffffffffffffffffffffffffffffffffff168152602001908152602001600020819055505050505056fea265627a7a72315820819de278f8f73c35cd5d08505028a32753a0d04fc0d8f00039a7b374a3c7d18c64736f6c63430005100032",
  "source": "//SPDX-License-Identifier: MIT\npragma solidity >= 0.5.0 < 0.7.0;\n /*\ncuenta que estoy usando\nmapping (asignacion) es un tipo de referencia como arrays y estructuras.\n\nSintaxis de mapeo:  mapping(_keyType => _valueType)\nDonde:\n_keyType: puede ser cualquier tipo integrado (tipo de construcion)\n        mas bytes y string. No se permiten tipos de referencia u objetos complejos.\n_valueType: puede ser cualquier tipo.\n\nConsideraciones:\n El mapping (La asignacion) solamente puede tener un tipo de almacenamiento y\ngeneralmente se usa para variables de estado.\n El mapping se puede marcar como public. Solidity crea automaticamente getter para ello.\n */\n\ncontract Usuario {\n  /*\n  constructor() public {\n  }\n  */\n  mapping(address => int256) public saldo;// tiene qu\n  /*\n   Las funciones modifier (modificadores) se uilizan para modificar el comportamiento de una funcion.\n  e.g se usa para agregar un requisito previo a una funcion. Puede o no tener parametros.\n   El cuerpo de la funcion se inserta donde aparece el simbolo especial \"_;\" en la definicion demodifier.\n  Entonces, si se cumple la condicion del modifier se llama a esta funcion a traves de \"_;\", la function\n  se ejecuta, de lo contrario se genera una excepcion (o sea no cumple la condicion).\n  */\n  modifier positivo(int256 valor){\n    require(valor > 0, \"El valor debe ser positivo\");//validacion\n    _; //que es? para llamar a la fuancion que le estamos poniendo la condicion\n  }\n  // cambiar poner por cargar\n  function poner(address usuario, int256 cuanto) public positivo (cuanto){\n    int256 plata = saldo[usuario]; //Type uint256 is not implicitly convertible to expected type int256.\n    plata += cuanto;\n    saldo[usuario] = plata;\n  }\n  //por ahi cambiar sacar por comprar\n  function sacar(address usuario, int256 cuanto) public positivo(cuanto){\n    int256 dinero = saldo[usuario];\n    require(dinero >= cuanto, \"No hay suficiente efectivo\");\n    dinero -= cuanto;\n    saldo[usuario] = dinero;\n  }\n// //tal vez no es necesario\n//   function balance(address usuario) public view returns(int256){\n//     return saldo[usuario];\n//   }\n}\n\n// npm install eslint\n// hay que agregarlo en el package.json en script\n// es una herramienta que sirve para revisar nuestro codigo. lo usa \"airbnb\"\n",
  "sourcePath": "C:\\Users\\ELVIS\\git\\tp-2020-avilacalderon\\Blockchain\\truffle\\contracts\\Usuario.sol",
  "compiler": {
    "name": "solc",
    "version": "0.5.16+commit.9c3226ce.Emscripten.clang"
  },
  "schemaVersion": "3.2.0",
  "updatedAt": "2020-06-18T20:27:37.050Z",
  "networkType": "ethereum",
  "devdoc": {
    "methods": {}
  },
  "userdoc": {
    "methods": {}
  }
}